:020000041000EA
:1000000000B5324B212058609868022188439860DF
:10001000D860186158612E4B002199600221596106
:100020000121F02299502B49196001219960352056
:1000300000F044F80222904214D00621196600F024
:1000400034F8196E01211966002018661A6600F04E
:100050002CF8196E196E196E052000F02FF8012189
:100060000842F9D1002199601B49196000215960AB
:100070001A491B48016001219960EB211966A021F2
:10008000196600F012F800219960164914480160C1
:100090000121996001BC002800D000471248134993
:1000A000086003C880F30888084703B5996A0420EC
:1000B0000142FBD001200142F8D103BD02B5186610
:1000C0001866FFF7F2FF186E186E02BD00000240BE
:1000D000000000180000070000035F00212200005C
:1000E000F4000018222000A00001001008ED00E03C
:1000F00000000000000000000000000074B24E7A12
:1001000000200420F7010010C3010010C5010010F9
:10011000C1010010C1010010C1010010C101001097
:10012000C1010010C1010010C1010010C701001081
:10013000C1010010C1010010C9010010CB01001065
:10014000CD010010CD010010CD010010CD01001037
:10015000CD010010CD010010CD010010CD01001027
:10016000CD010010CD010010CD010010CD01001017
:10017000CD010010CD010010CD010010CD01001007
:10018000CD010010CD010010CD010010CD010010F7
:10019000CD010010CD010010CD010010CD010010E7
:1001A000CD010010CD010010CD010010CD010010D7
:1001B000CD010010CD010010CD010010CD010010C7
:1001C00000BE00BE00BE00BE00BE00BEEFF3058054
:1001D000103800BEF2EB8871DC2F0010F82F0010F1
:1001E0003402001090A31AE700201F49086006C8D7
:1001F00081F3088810471D48006800282FD10DA4FE
:100200000ECC002902D000F012F8F9E71849194A7B
:10021000002000E001C19142FCD1174988471749ED
:1002200088471749884700BEFDE701C901C29A42C5
:10023000FBD37047F82F0010C000002054020020AC
:100240008C31001000000420000004208C310010CC
:10025000001004200010042000000000704709482E
:1002600002F00CFA0047000008ED00E0000000D0AA
:10027000580200203C060020F52400105907001009
:10028000E92500105756000006005250ABB36053EA
:100290004C2F001006005250861C03025C2F0010E9
:1002A000060052505422A29D702F0010050052509B
:1002B000DE65F4688C310010F8B5C0460448054B83
:1002C00010B5834203D0044B002B00D0984710BDDB
:1002D0005402002054020020000000000648074994
:1002E000091A8B10C90FC91810B5491003D0044B57
:1002F000002B00D0984710BD54020020540200206B
:100300000000000010B5074C2378002B09D1FFF73F
:10031000D5FF054B002B02D0044800E000BF0123AD
:10032000237010BD5805002000000000782E00103A
:10033000054B10B5002B03D00449054800E000BF71
:10034000FFF7CCFF10BDC046000000005C05002098
:10035000782E0010F0B5C646042100B5804600F0A6
:100360006DFC052002F054F83221000102F0E0F9A2
:1003700001250400234E4F2C11D90521200002F045
:10038000D7F9002915D1AF007F19B74211D8200045
:10039000053102F0CDF93D0004004F2CEDD82F2C93
:1003A00007D81F2C16D96B00B34225D81D0064084E
:1003B000E1E70321200002F0BBF96B000029F3D133
:1003C0005F19B742F0D82000032102F0B1F93D00D7
:1003D0000400D0E702200F2C0BD943460A4A180725
:1003E000400F944683001B1800209B0063445C6010
:1003F0001D6180BCB846F0BD80235B019C42ECD3FC
:100400000120F6E7FEFF000000000540F8B50307F5
:100410005B0F9C00E418174BA400E3180700164874
:100420001D69164B4843B421E61802F059F9124BE6
:1004300001359C46604480B26843114902F078F966
:1004400003041B0CFA0711D40E4A306843401340D2
:100450008022520116433360064B01209C46012343
:100460006444216822438B431360F8BD064A1B0491
:10047000EBE7C04600000540CC0C00000C00054036
:10048000FEFF0000FFFF00000000FFFF002105202D
:1004900010B5FFF7BBFF0121084B1A688A431A60A9
:1004A0001A6801318A431A601A6802318A431A6055
:1004B0001A6804318A431A60FEE7C04600002050E3
:1004C000F0B5C6461E1C002300B588B01500039386
:1004D0008022F82352025B02009201932C00C02379
:1004E00010221B030700884604A8694608340293BB
:1004F000240302F05FFAEB011C43102204A96846B2
:10050000059402F057FA154B301C0293144B1C4013
:1005100080239B041C43019402F0F6F984B200206E
:10052000002C0ED0200002F0C7F9011C301C02F094
:10053000A2F98721C90502F0B8F902F0E5F9C0B2C5
:100540000002240404436B462A004146380000940C
:1005500002F002FC08B080BCB846F0BD00000C8080
:10056000FFFFFFE0F0B5C6461E1C002300B588B0B3
:10057000150003938022F82352025B02009201933C
:100580002C00C02310221B030700884604A86946DC
:1005900008340293240302F00DFAEB011C431022ED
:1005A00004A96846059402F005FA154B301C029325
:1005B000144B1C40C0239B041C43019402F0A4F97B
:1005C00084B20020002C0ED0200002F075F9011C2E
:1005D000301C02F050F98721C90502F066F902F0DB
:1005E00093F9C0B20002240404436B462A0041463A
:1005F0003800009402F0B0FB08B080BCB846F0BDF3
:1006000000000C80FFFFFFE0F0B5C6461E1C002373
:1006100000B588B0150003938022F82352025B02D4
:1006200000920193C02310221B030700884604A8F0
:100630006946029302F0BEF92B00EC1C0A331B033F
:10064000E4011C43102204A96846059402F0B2F9A3
:10065000154B301C0293154B1C4080239B041C43FC
:10066000019402F051F984B20020002C0ED0200039
:1006700002F022F9011C301C02F0FDF88721C905A7
:1006800002F013F902F040F9C0B20002240404435E
:100690006B462A0041463800009402F05DFB08B02A
:1006A00080BCB846F0BDC04600000C80FFFFFFE0F4
:1006B000F0B5C6461E1C002300B588B01500039394
:1006C0008022F82352025B0200920193C023102281
:1006D0001B030700884604A86946029302F06AF9E2
:1006E0002B00EC1C0A331B03E4011C43102204A959
:1006F0006846059402F05EF9154B301C0293154BC9
:100700001C40C0239B041C43019402F0FDF884B2FA
:100710000020002C0ED0200002F0CEF8011C301C6E
:1007200002F0A9F88721C90502F0BFF802F0ECF841
:10073000C0B20002240404436B462A00414638003C
:10074000009402F009FB08B080BCB846F0BDC0467A
:1007500000000C80FFFFFFE0F0B5DE4657464E4636
:100760004546E0B5062089B000F0F0FAD0231B061C
:10077000994640234A46012193620620002200F058
:1007800075FA01220421944B062000F087FA072015
:1007900000F0DCFA80234A46012193620720002200
:1007A00000F064FA0520FFF7D5FD00210520FFF7D2
:1007B0002DFEFA20894C400001F012F901212000A1
:1007C00002F048FA01210600200002F043FA01215C
:1007D0000190200002F03EFA01210700200002F003
:1007E00039FA7F490290200002F052FA7D49824690
:1007F000200002F04DFA7C498346200002F048FABE
:100800007A490390200002F043FAFE2380465246C4
:10081000310020009B05FFF753FEFE2301995A4645
:1008200020009B058A46FFF79DFEFE23390020002D
:10083000039A9B05FFF7E8FEFE230299424620003B
:100840009B058846FFF734FF01231A00B240216858
:1008500050460A4322601A008240216840460A43FB
:1008600022601A00BA4021680A4322601A008240BE
:1008700021680A4322604A465268D209134209D1CC
:1008800098460A2001F0ACF84B4642465B68DB090B
:100890001A42F6D01E210520FFF7B8FDFA204000CD
:1008A00001F09EF8524A73009446802201999B19E8
:1008B000DB0063448C46520113434D489A464B007B
:1008C00063448446DB006344134399467B000298EB
:1008D000DB19DB00634484461343454C98464300D0
:1008E0006344A446DB0063441A431E230592079A1F
:1008F0000836083108370830069301962B009346D6
:10090000364E0291039704900FE0069A531C8445DB
:1009100000D2023BB42B4CDDB42306936B4605207A
:10092000198BFFF773FD2300BB46019A03989200D1
:100930009159049C029A80009200A4009259805917
:10094000A4595746A446802424063C603C604F4688
:100950003C603C604746059D3C603C602C602C60E0
:100960006446041BE517641917006C408A4200D9DD
:100970000F00E31A1D003135D5DB312BD3DC5B468C
:10098000FB1A1D003135CEDB312BCCDC0A2CBCDC54
:100990000A2FC8D9069B8A4211D219001F2B19DBD6
:1009A0000139052089B2FFF731FD0A2001F018F85E
:1009B000B4E706931E2BB1DA1E230693AEE71900A7
:1009C000B32B05DC013189B20520FFF71FFDECE7F1
:1009D000B321F7E71F21E3E78D040010000020504A
:1009E000782E0010942E0010B02E0010D02E001083
:1009F000D0002050D0231B061B68F0B59A00454656
:100A000090464146894ADE465258574693465A1EFA
:100A1000934130224E465B421A401300844AE0B5AF
:100A2000944683B063440193824B08269A4635006E
:100A3000083DEA081300019908339B005C58002C1C
:100A400023D05B46002B2AD001230F27994639007B
:100A50002140274213D04B4652464046AB401258E5
:100A60001A420CD1072208002A409200904002004E
:100A7000EB0871483C339B001A502800D8472409E2
:100A80000135002C01D0B542E1D30836282ECED155
:100A900003B0F0BCBB46B246A946A046F0BD0F234A
:100AA00019002140234207D047460E3BAB40614826
:100AB000C059184200D18DE02309F11F002BE4D06A
:100AC0000F22100018401A420FD0012345468B40D8
:100AD000584A52591A4208D10722CB0811408900BE
:100AE0008840554A3C339B009850230AB11F002B85
:100AF000CBD00F22100018401A420FD001234546D8
:100B00008B404C4A52591A4208D10722CB08114057
:100B100089008840484A3C339B009850230B711F42
:100B2000002BB2D00F22100018401A4241D1230CE2
:100B3000311F002BA9D00F22100018401A4252D1A9
:100B4000230DF11E002BA0D00F22100018401A42D6
:100B50005AD1230EB11E002B97D00F22100018403F
:100B60001A420FD0012345468B40324A52591A424D
:100B700008D10722CB081140890088402E4A3C3317
:100B80009B009850240F721E002C00D17DE701239A
:100B90005146404693400958194200D075E7072155
:100BA000D3080A40920094403C33234A9B009C5057
:100BB0006BE7012345468B401E4A52591A42B6D173
:100BC0000722CB081140890088401B4A3C339B0018
:100BD0009850ACE707231D40AD00A940164B3C32AE
:100BE0009200D15068E7012345468B40114A525983
:100BF0001A42A5D10722CB081140890088400E4A2D
:100C00003C339B0098509BE7012345468B40094AA3
:100C100052591A429DD10722CB08114089008840C1
:100C2000054A3C339B00985093E7C0468C05002052
:100C3000004101401806002000400140094A83009D
:100C400094464022634410B51C68C0006240C02432
:100C500014408022520113431C60034B9C466044A5
:100C6000416010BD04C00140004001400A4B8000BB
:100C70009C4604236044002901D00C230821002A4B
:100C800000D10B00026853400C221A4080235B0104
:100C9000184302607047C04604C00140F8B51E000A
:100CA000D0231B061C680700631E9C41302364424E
:100CB0001C40224B15009C46C30807201A003840F0
:100CC000800081403C321E48644492009B001150D9
:100CD000E418002D11D080239B011C43D0232160F8
:100CE0001B061C68174FA4003B59002B11D0002E87
:100CF0001ED03E51002D16D1F8BDC0239B011C43D0
:100D0000D02321601B061C680E4FA4003B59002B0A
:100D1000EDD1002EEED000220D200B493E5100F007
:100D20001FF9002DE8D001210D2000F0D5F8E3E7F0
:100D30000D20054900F008FADBE7C04600410140FC
:100D4000004001408C050020F50900100123D0224D
:100D50008340120693629361094A830094464022BD
:100D600063441968C0004A40C021114080225201EA
:100D700013431960034B9C4605236044436070474E
:100D800004C0014000400140024B18688007C00FBA
:100D90007047C04600C00640EFF3108072B6034AA9
:100DA0001368002BFCD0BFF35F8F70472C0100D07D
:100DB000BFF35F8F0022024B1A6080F310887047E8
:100DC0002C0100D070B5EFF3108C72B60D4D2B686E
:100DD000002BFCD0BFF35F8F0724CB08C618C05C84
:100DE00001230C40A3401C000440034207D10343ED
:100DF0003370BFF35F8F2C608CF3108870BD1000D0
:100E000001F0F6FB2C0100D0F8B54746CE468846E7
:100E100080B5EFF3108C72B6214D2C68002CFCD0FD
:100E2000BFF35F8F9A422CD8D4080727055D0619B7
:100E300001241740BC402C421FD0072101278946BE
:100E400009E0D408055D06194C4639001440A1405C
:100E50000C00294211D001329342F2D201204042CB
:100E6000BFF35F8F00220E4B1A608CF310880028AE
:100E70000FDBC0BCB946B046F8BD2C43100034703F
:100E8000EEE7BFF35F8F00232B608CF31088012007
:100E900040424346002BECD0089801F0A9FBC04625
:100EA0002C0100D00021044B044ABFF35F8F02C322
:100EB0009342FAD17047C046000100D0800100D0B3
:100EC000044A1078431CDBB2172B00D9102313708F
:100ED0007047C0469801002001238340002904D0B8
:100EE000034A1360034A13607047034A1360FBE729
:100EF00080E200E000E100E080E100E0024B103021
:100F00009B688000C058704700ED00E070B50D0090
:100F1000EFF3108672B60F4A1368002BFCD0BFF3B4
:100F20005F8F0D4B10309B6884001B590B4A934216
:100F300003D09D4201D001F073FB074B9B681D510C
:100F4000BFF35F8FBFF35F8F0022024B1A6086F3FF
:100F5000108870BD240100D000ED00E0CD0100102C
:100F6000F0B557464E46DE464546E0B585B006002C
:100F700002911700EFF3108B72B6674A1368002BCB
:100F8000FCD0BFF35F8F0025644B5D579A46002D60
:100F900000DAA4E06B00624C03935B199B00984657
:100FA000A146C1444B4652469B79103613705D4BA7
:100FB000B2009B68019299580B1B2F2B34D95A4BC6
:100FC000994200D0A4E0039B584A9C46584B654484
:100FD000AD006353434602336519E418554B0121B4
:100FE000043B1B1B1B055B0D13436B80524BEF71C6
:100FF000AB80FF23AB71029BAB604B460B431900E8
:10100000484B019A9B689950BFF35F8FBFF35F8F86
:101010000022414B1A608BF3108805B0F0BCBB4630
:10102000B246A946A046F0BD01200A008243D3790A
:10103000BB422FD845464E46130040491B1B5B411F
:101040005943090D3A4B63533A4B02356519043B3A
:101050005B1B1B05354D5B0D2B4373800426B4468B
:10106000E0444444131F1B1B4C46A17102991B050D
:10107000A16049465B0D2B43A380314BE7710143CF
:101080001360BDE75800C01880002018C679BE4222
:101090002BD902000623D356002BF3DA101D82460B
:1010A0002848804604267642B446E14450464E46DF
:1010B000361A3005400D824656461C489571064347
:1010C0009680039A944665441D4AAD0064192260D7
:1010D0004246A371029BA280E771A36090E701F0F2
:1010E0009FFA002553465D5754E7101D82469088AD
:1010F0004005001584464046D44466460430201816
:10110000301AE0260005400D360230438046C9E71C
:1011100001F086FA57E7C046240100D03A060020C5
:101120009C01002000ED00E0CD01001000E0FFFF79
:1011300000A1FFFFCC01002001BDFFFFAAAA000013
:101140000148804701BD0000F0B5DE4657464E46D7
:101150004546E0B50C0083B0EFF3108972B6584AEB
:101160001368002BFCD0BFF35F8F564B9A680300C7
:1011700010339F00D559544A9046954232D0A5422B
:1011800043D0524EAA1B2F2A2CD8012282409246CD
:1011900051464F4A12681140019151464D4A116023
:1011A000BFF35F8FEFF305829346002A33D101230B
:1011B0002A009A4393689C4208D177E04B005B1861
:1011C0009B00F3189968A1422AD01A0006215156B3
:1011D0000029F3DA019B002B19D052463E4B1A60CE
:1011E0003B4B1A60374B9B68DD51BFF35F8FBFF3FA
:1011F0005F8F0022324B1A6089F3108803B0F0BC75
:10120000BB46B246A946A046F0BD1500EAE75246E5
:10121000304B1A60E6E79342C9D001F001FAC6E705
:1012200006215956002921DB4A0050188000341845
:101230008046A0689860E079D871062020569871A1
:10124000002824DBA488F01A6405241544440019FE
:10125000E0240005400D24022043988052181F4BC3
:101260009200B6181A781970B271B3E7594600297E
:101270000FD1FF3191711A49918018490A789A71FA
:10128000184A9B1B5B415A43120D0A70A2E716488D
:10129000E3E7164A1649D21A083A5002400D0143B4
:1012A0009980144952080A43DA8093E7062151567F
:1012B00013000029B8DA5A46002AEAD14546DCE78D
:1012C000240100D000ED00E0CD0100109C010020C1
:1012D00000E100E080E100E080E200E03A0600206A
:1012E00001BDFFFFAAAA000001BD0000D601002039
:1012F00000F0FFFF00F8FFFF70B5EFF30581012458
:101300000443EFF3108C72B6214A1368002BFCD013
:10131000BFF35F8F1F4B05001F4AED1A6D416A43F3
:10132000120D1E4D8900AE6852B27658A6421CD0EE
:101330000621595691421CD012215956914222D071
:101340001E215956914220D02A21595603249142F8
:1013500010D0134B19781A708171BFF35F8F002280
:101360000B4B1A608CF3108870BDAB680D4C5C5051
:10137000EFE700246100091989005B18FF219971CA
:1013800009499980E5E70124F4E70224F2E7C04621
:10139000240100D09C010020AAAA000000ED00E07A
:1013A0003A060020CD01001001BDFFFF054B064AA3
:1013B0001360064A136053609360D36013615361F6
:1013C000936170478080808000E400E004E400E0E6
:1013D000024B9C4661448900016070474000003424
:1013E00010B50400FFF76CFD01002000FFF7F0FFCF
:1013F000FF232371BFF35F8F10BDC04610B50400FB
:10140000FFF75EFD01002000FFF7E2FFFF23A3804E
:10141000BFF35F8F10BDC04683680B4810B584468C
:1014200061446244090112019A18591854684B68C2
:1014300001209C4201D802D00020C0B210BD126829
:101440000B689A42F9D8F7E7FFFFFF0F0A4B1968BC
:10145000EFF3108072B60A68002AFCD0BFF35F8FEA
:101460001B68BFF35F8F00221A6080F3108840BFB3
:10147000002000217047C04624060020F8B55746DA
:101480004E464546DE46E0B599460CAB1C780DABA2
:101490001B78060090469A460768002C11D1BC7B49
:1014A000002C42D065003B682D19033D59194B783B
:1014B000BB73002B00D1FB7300238B704B700B7040
:1014C00004E065003B682D19033D5919B2682A4BA9
:1014D00094464246E3181B0163441A604A465A6028
:1014E0000A9A9A600B9ADA6000238B704B700B702B
:1014F0007B7B9B46002B2BD022005946B8687B682B
:1015000098473A68002816D05B4658465B005B4413
:101510005519033BA870D118D35C002B00D06B7019
:101520005B460C707B73A34513D0F0BCBB46B24640
:10153000A946A046F8BD5B465B005B44033BD3185D
:101540009C705119525D002A00D05A705B460B7096
:101550007C7342464B46307D00F090FB051E06D062
:101560005346002B03D12100306800F0ABFD0E9BE9
:10157000002BDAD01D70D8E7FFFFFF0FF0B5DE4675
:1015800057464E4645460023E0B58BB00893674B5F
:101590008200D45800239B46099000F00FFB62683C
:1015A00006000F00EFF3108572B61368002BFCD015
:1015B000BFF35F8F23689C465B7B9946002B00D16D
:1015C00069E0A2685A4B90464B441B01984443463D
:1015D0001A685B6810001900801BB941002900DC03
:1015E00063E0099800F04AFB00230022984600239C
:1015F0000692079300239A466368BFF35F8F5A46AB
:101600001A6085F310885346002B08D10028C4D1F6
:101610000BB0F0BCBB46B246A946A046F0BD089B45
:10162000414618024B461843D047626806000F0037
:10163000EFF3108572B61368002BFCD0BFF35F8FF9
:10164000002F50DB33003B4302D02369002B61D1D4
:101650002368D97B002907D04A00521819688C46A4
:1016600049466244033A51709A7B002A01D14A46A6
:101670009A734A46DA734B46E168013BCA5C013211
:10168000CA545B4623616368BFF35F8F5A461A6092
:1016900085F3108881E700230022984600230692F4
:1016A0000793002300209A46A6E7002902D10028CC
:1016B00000D096E70021604600F082FC43461A689D
:1016C0005B680692079343469B689A464346DB68ED
:1016D0009846E3684B44013B1B7808931B02034385
:1016E0002361002088E72369002BB1D0069A079B6D
:1016F000921BBB41002B15DB59460491012103913C
:101700004946029141460191514620000091FFF760
:10171000B5FEB6E700F052FA32003B0012184B411A
:10172000002BE9DA0122034B5242E5E708060020CC
:10173000FFFFFF0FFFFFFF7F10B5144C6368002B06
:1017400004D00A211248FFF743FE10BD2300114ABE
:101750001021206800F04EFB032000F023FA032044
:1017600000F0F6FA03200C4900F042FAFFF7A8FB5C
:101770000A4B9C4603232375D0231B061B68604439
:101780006375074B80006060DC60DAE7E4010020ED
:1017900024060020191400107D15001040000034AC
:1017A00008060020F0B54E464546DE465746E0B5F1
:1017B00085B0019310AB1B78060003930023994674
:1017C000984600927268EFF3108B72B61368002B84
:1017D000FCD0BFF35F8F3568AC7B002C3DD0670039
:1017E0002B683F19033FDB195A78AA73002A00D1EE
:1017F000EA73B168474A8C4600980199A218120111
:101800006244106051600E9991600F99D160424618
:101810009A705A701A706B7B9A46002B67D0220020
:101820001900A8686B6898472A68002852D0534668
:1018300050465B005344D719033BB870D118D35CB2
:10184000002B00D07B7053460C706B7354454FD007
:10185000F3681B19013B187800E000207368BFF3A0
:101860005F8F42461A608BF31088002C4FD04B4696
:10187000002B08D10002204305B0F0BCBB46B246A5
:10188000A946A046F0BD039B002B3ED00E9B002036
:101890000F999847030004000D000B4335D0002931
:1018A0000ADA009A019B121BAB4100920193002BB4
:1018B0000ADB039B994685E700F080F924184D4127
:1018C00000940195002DF4DA0123134C5B42009340
:1018D0000194EEE753465B005344033BD3189C70DE
:1018E000D119D25D002A00D05A7053460B706C7328
:1018F000307D009A019B00F0C1F981460028A7D0F5
:101900002100306800F0DEFBA2E70020B4E70120F0
:101910004042B1E7FFFFFF0FFFFFFF7FF0B504007C
:101920000D0006267642F717C64636196F4100B5F8
:1019300084B08F4214D811D000F040F932003B003F
:10194000121A8B41002B15DC002B3ED02000290001
:1019500000F03EF904B080BCB846F0BD8642EBD939
:101960000026002700F02AF932003B00121A8B41B2
:10197000002BE9DD002302930193154B3200009305
:1019800014483B00FFF70EFF0028DFDB00239846DA
:10199000BC46114A114F7B6A9C4504D8B96A8E42F5
:1019A000D4D99C45D2D11168EFF3108072B60B6880
:1019B000002BFCD0BFF35F8F1368BFF35F8F4146EE
:1019C000196080F3108820BFE5E7002ABED0D1E778
:1019D0004D140010E40100202406002000400540C2
:1019E00070B5060000F0EAF8FA2204000D000023AA
:1019F00030000021920000F021FF00196941002908
:101A000002DBFFF78BFF70BD012001494042F8E780
:101A1000FFFFFF7FF0B5EFF30583CE46474680B565
:101A200005000C0085B0002B12D02C4A0020536A10
:101A30009C4203D8926A0130AA4204D305B0C0BCCC
:101A4000B946B046F0BDE01A421E9041C0B2F5E77B
:101A5000234E02930193234B0200009330000B00AE
:101A6000FFF7A0FE031EE0DD20BF7168EFF31087D3
:101A700072B60A68002AFCD0BFF35F8FDAB29446D0
:101A80003068427B62451DD0FF221A4051008946D2
:101A900001689144884649464144033989780029C0
:101AA00013D0F1681B0A88464244013A1278DBB22F
:101AB0009A420FD07368BFF35F8F00221A6087F3DA
:101AC0001088B2E7FF221A40EBE732699342F1D166
:101AD0003161EFE7614600F0F5FAEBE700400540C1
:101AE000E40100204D140010F0B5EFF30582D64656
:101AF0004F4646461000C0B51038EFF3108872B656
:101B0000214C2368002BFCD0BFF35F8F0123190009
:101B100081401E4D1F006963AA461D4D29601D4D61
:101B20002E78AC463500C5402F402B4209D1BFF37B
:101B30005F8F276088F31088E0BCBA46B146A8469C
:101B4000F0BD5346144D5F6A83005D59AF420ED31A
:101B5000124A8E439B5862461670BFF35F8F002275
:101B6000226088F31088002BE6D09847E4E70C4BFE
:101B700092009C46624413681360BFF35F8F00239A
:101B8000236088F31088D7E7280100D00040054083
:101B90003C7005403B060020280600207C05002004
:101BA000D03F054010B50100024A0348FFF70AF98B
:101BB00010BDC046F02E001038060020034B596AB5
:101BC0000A00986A596A8A42FAD170470040054073
:101BD000064A536A9942FCD807D1044B02E05A6A7C
:101BE000914202D19A6A8242F9D37047004005407F
:101BF00070B504000D00EFF3108672B61A4A136830
:101C0000002BFCD0BFF35F8F002D1BD02000FFF70F
:101C100075F9164981420AD02000FFF777F90121B2
:101C20002000FFF759F90123A340114A1360114B1B
:101C3000A400E550BFF35F8F00220B4B1A6086F3C0
:101C4000108870BD0B4BA200D5500122A2400A495A
:101C500020000B7893430B700449FFF775FA0021BD
:101C60002000FFF739F9E5E7280100D0E91A001054
:101C7000386005407C0500203B060020F0B54F464B
:101C8000D6464646C0B507002C4C616A0D00A66AD0
:101C9000616AA942FAD18B4208D805D00120E0BC84
:101CA000BA46B146A846F0BDB242F7D9EFF3108A62
:101CB00072B6234801680029FCD0BFF35F8F01256D
:101CC000BD4020491D4C8846097889462943C9B240
:101CD0008C46414660460870391D1B488900656383
:101CE0000A51B9000B50216A0020294219D0616ABB
:101CF0000800A66A616A8142FAD18B4219D801D1E3
:101D0000B24216D8CC4516D00C4B1F201D625D6325
:101D100001230740BB400D4A1E38136043464A4624
:101D20001A70BFF35F8F0022054B1A608AF3108888
:101D3000B5E70020F5E70120F3E7C0460040054085
:101D4000280100D03B0600202806002080E200E0A9
:101D5000EFF3108C72B60A490B68002BFCD0BFF36E
:101D60005F8F01238340074A0748136202789A4332
:101D70000270BFF35F8F00230B608CF310887047F5
:101D8000280100D0004005403B06002070B505004A
:101D900014001600002915D00C00002A12D080680B
:101DA0006B689847296800280ED073009B19620061
:101DB000033B1219CB18033A9C7088188A5C002ADE
:101DC00015D10670200070BD63001B197200033B23
:101DD0009219CB18033A9E7088188A5C002A02D1A7
:101DE00004703400EEE75A7004703400EAE75A7069
:101DF0000670E7E730B583600023CCB2437301334C
:101E0000047342608373C4730D000068012C06D90B
:101E1000421C0133DBB2137003329C42F9D1FF2123
:101E200029404B005918002340180338437030BD37
:101E3000F8B5CE46474606000C0080B5002907D00D
:101E40004D0003686D18033D5A195778002F04D1CF
:101E50002000C0BCB946B046F8BD7900C9190339A5
:101E600088464344597889460021597051707368F7
:101E70003A002100806898473368002814D0424611
:101E80009A18947059195B5D002B00D053700F7035
:101E9000270049463000FFF7CBFF39000200300031
:101EA000FFF774FF0400D3E7424641465D19AF7067
:101EB0009A185B5C002B00D06B701470E9E7C04689
:101EC000F0B557464546DE464E46E0B50D006B0080
:101ED00001685B19DF1E0400C85D83B00192CA1956
:101EE000002850D043001B18033BCB185E78B44643
:101EF000002E1AD1019E002E42D0E67B002E04D087
:101F000073009B19CB18033B5D70A37B002B00D1A2
:101F1000A573E57300282FD10023537003B0F0BCE4
:101F2000BB46B246A946A046F0BD72006244033AE1
:101F300089184A78904600224A7091465A700100EA
:101F400032002000FFF722FF43468246002B07D0D5
:101F50005B0021684344033BCB185A78002A16D112
:101F6000424651462000FFF711FF2168019BCA1924
:101F7000002BC2D10028CFD043001B18033BCB1845
:101F800000219970C8E7019B002BB6D1C4E750002F
:101F900080180338091848788346484648705870B6
:101FA00041462000FFF7F2FE594680462000FFF729
:101FB0003FFF414602002000FFF7E8FE8046CFE7E2
:101FC000F0B557464546DE464E46E0B583B0019132
:101FD000457B04006B0000685B19DF1EC15DC21900
:101FE000002952D04B005B18033BC3185E78B446FF
:101FF000002E1CD1019E002E44D0E67B002E04D082
:1020000073009B19C318033B5D70A37B002B00D1A9
:10201000A573E573002931D1002328005370617343
:1020200003B0F0BCBB46B246A946A046F0BD720064
:102030006244033A801842789046002242709146EA
:102040005A7020003200FFF7A1FE43468246002B63
:1020500007D05B0021684344033BCB185A78002A21
:1020600017D1424651462000FFF790FE019B010028
:102070002068C219002BC0D10029CDD04B005B18BD
:10208000033BC31800209870C6E7019B002BB4D116
:10209000C2E750008018033809184878834648463C
:1020A0004870587041462000FFF770FE5946804640
:1020B0002000FFF7BDFE414602002000FFF766FE4C
:1020C0008046CEE770B5040000292CD0437B8B42BC
:1020D0002ED0056848004018033828188278002A56
:1020E00021D053009B18033BEA5CEE188A4202D1D0
:1020F0001BE0002A08D053009B18033BEB185A78CA
:102100008A42F6D142785A700023012283704370CC
:102110002000FFF7D5FE617B02002000FFF736FEAE
:102120006073012000E0002070BD43783370EBE75E
:1021300001221900FFF7C4FE60730120F4E7C046D6
:1021400030B50C2083B000F0B9F9FEF71DFE002871
:102150000ED0994B994A1A605A609A60DA601A61F7
:102160005A619A61DA611A62954A5A6203B030BDC7
:10217000944CA06700F0AAF90122934B1A60636C9B
:10218000012BFCD10322914B1A608E4A936B012BD9
:10219000FCD1013301218E4A8E480093043300F0B4
:1021A0003DF905238C4A009301218C4800F036F953
:1021B0008B4B5A68FF2A02D8802252005A60802234
:1021C0007D4C824B21691201854D1A60002907D090
:1021D000606900F0ADFA431C5800C0180338FDD206
:1021E000E0217F4B02201A681140802252012A43CD
:1021F00011601968484003210140116004219A6868
:102200001142FCD08022802192012A4309011160F1
:10221000802252005A60734B2361734B5968FF2927
:1022200000D85A600321684A6F4B116002399A68DE
:102230001142FCD0E0201A681040802252011A435B
:10224000106018684840032101400220116066496F
:102250008A681042FCD0802292011343802212012E
:102260001A608022614B52004A606361604B59687A
:10227000FF2900D85A6080225E4BE16912015C4D53
:102280001A60002907D0606900F052FA431C580018
:10229000C0180338FDD2E02255490B681A4080234C
:1022A0005B012B431A60802380229B012B43120188
:1022B0001A608022414B52004A60E3614E4B5968DC
:1022C000FF2900D85A6080224C4B216A12014A4DE6
:1022D0001A60002907D0606900F02AFA431C5800F0
:1022E000C0180338FDD2E02243490B681A4080230E
:1022F0005B012B431A60802380229B012B43120138
:102300001A60802380225B004B602C4BD202236238
:102310003B4B5968914200D25A608022394B616A26
:102320001201374D1A60002907D0606900F000FAE9
:10233000431C5800C0180338FDD2E02230490B6816
:102340001A4080235B012B431A60802380229B016B
:102350002B4312011A608023DB024B60184B63622F
:10236000294B5A68FF2A02D8802252005A608022E4
:10237000264BA1691201244D1A60002907D060691B
:1023800000F0D6F9431C5800C0180338FDD2E022F3
:102390001D490B681A4080235B012B431A60802380
:1023A00080229B012B4312011A6080235B004B604B
:1023B0000E4BA361DAE6C04694050020006CDC02F7
:1023C0001BB70000008000403CB0004030B000402F
:1023D000002F685900800240008C864700C00240F0
:1023E00030800040001BB7003C800040405973071C
:1023F0005480004054B000406080004060B0004015
:102400006C8000406CB000404880004048B0004004
:10241000014B8000C058704794050020F8B50400B7
:1024200021481D0017000E0000F082F9010038005D
:1024300000F07EF9069B29041B0319432368002B37
:1024400020DB1A4B1A4DE21853425A4180235B019C
:102450009C461203174B62441A60174B1A60170010
:10246000AB689F43FBD1C022231D92011A43212355
:102470002660A06013602368002BFCDA0823E1606B
:102480001360F8BD3F2322681340B342D9D1A3683B
:102490001B051B0D8342D4D1EE22E368D202134008
:1024A0008B42CED1EDE7C046001BB7000040FDBF18
:1024B00000C0004000E0004000F000408023024ADD
:1024C0009B000343D362704700800540AA23064A5D
:1024D0001B0113602F230549D360054B1960536816
:1024E000002BFCDA7047C0460040024000B0FA0002
:1024F000006002402C4B2D4A70B51A602C4A2D4BBF
:102500002D491A6014008B689C43FBD12B4D2C4E37
:10251000B54208D2013E761BB60808CD9847230085
:102520000134B342F9D1FFF70BFE264A214B1A6062
:10253000214A9368DB43DB01DD09002BF9D14022FE
:10254000214B224C224E9A675A671A67DA66B442C8
:1025500008D223682000002B20D00834FEF74EFF5D
:10256000B442F6D31B4E1C4CC022A168300000F0D0
:1025700021FAA660FEF796FCFEF718FFFFF7DCF8DD
:10258000164C174EB44208D2013E361BB60808CC92
:1025900098472B0001359E42F9D170BD0834FEF7F3
:1025A0001FFFB442D5D3DDE700E00040BFCDFBFE06
:1025B000FE7F3C0000F0004000C0004040020020D0
:1025C00050020020FFFFFF0100F001403002002018
:1025D000400200200000002000ED00E0500200203A
:1025E0005402002000BEFDE710B5FFF7FBFFC04618
:1025F0000FB400B5084883B000F00EFB049B002B1D
:1026000007D005A91800019100F018F8034800F060
:1026100003FB0120FFF7E6FF142F0010242F00100A
:1026200010B50148FFF7E4FF282F001010B500286F
:1026300000D110BD00F0A4FAFBE7C04610B5094A6E
:102640000300146884B0002C08D0012200910648D1
:10265000524203A9A047012004B010BD00F0DCFAEB
:102660000020F9E7040600202D260010014804216F
:10267000014B1847100200209D260010142310B5AE
:102680000100188804331B88984710BD162310B525
:102690000100188802331B88984710BDF8B54746DB
:1026A000CE4680B50F1E19D014239946043304007A
:1026B0000025012698464B461888434621681B880A
:1026C000984701C4431E9841013540420640AF423D
:1026D000F1D13000C0BCB946B046F8BD0126F8E7DC
:1026E000124A936F9B0815D29066D166002905D0D7
:1026F000FFE7FFE7FFE7516F106F704704B58021D8
:102700000906C2175140002800D0C84300F0A4FBBE
:10271000002104BDF0B5146E556E576F166FFFF7AC
:10272000E3FF1466556657671667F0BD000000D0DA
:10273000114A936F9B0813D210665166002905D089
:10274000FFE7FFE7FFE7516F106F704704B5002800
:1027500001D00020C04300F07FFB002104BDC04633
:10276000F0B5146E556E576F166FFFF7E5FF1466E0
:10277000556657671667F0BD000000D0132370B58B
:102780001D78012D15D010DD1C48FFF77FFF1C4C74
:1027900001008022200000F00DF9022D06D019481A
:1027A000FFF76CFF184B186070BD154C174BA364F6
:1027B000F5E7164B124C23606360A360E36023616E
:1027C0006361A361E36123626362A362E3622363E3
:1027D0006363A363E36323646364A364E3642365C3
:1027E0006365A365E36523666366A366E3662367A3
:1027F0006367A367E367A364D1E7C046534400005F
:10280000580300204C33000020060020112800103F
:1028100007B5604601880A0A0230DF2AFAD1C9B238
:10282000820804D3028840880004104300E0006856
:10283000014A5050039007BD5803002051434343C1
:10284000C9188C46110C83B24B4310B4040C61437D
:1028500092B280B2504362431C041B0C001910BC9E
:1028600059411304120CC0185141614470470000D3
:102870004840414048400E4B5B6818470C4B1B6872
:1028800018470C4A936F9B0802D2094BDB68184724
:10289000F0B5146E556E576F166FFFF7F6FF054AC9
:1028A0001466556657671667F0BD014B9B6818475D
:1028B00058040020000000D0491A002808D108461A
:1028C00070470000C10FC90700D54042002817D04B
:1028D000F44603B40B4B1B68984706BC81409E38F6
:1028E0004042803107D20B0607D04900490AC00593
:1028F0001043084360470130F8E7490A8902F5E7C9
:102900007047000020060020014B5B6A184700005A
:1029100058040020132310B512481C78FFF7B6FEA8
:102920000100012C0AD003DD80220F4800F042F89C
:102930000E48FFF7A3FE0E4B186010BD0A4C542240
:10294000200000F037F80B4B6365A365E365236651
:102950006366A366E36623676367A367E36723622F
:10296000E361E5E753460000580400204C330000C3
:10297000200600207929001007B5604601880A0A60
:102980000230DF2AFAD1C9B2820804D30288408813
:102990000004104300E00068014A5050039007BD56
:1029A0005804002001480421014B18472002002050
:1029B0009D260010014B5B68184700002002002094
:1029C000030010B5080011001B68984710BDC046F1
:1029D000F0B546464F46D646C0B5437D80460E000C
:1029E0001700002B46D0002A3FDD4B1E9946244B92
:1029F0000125002400209A460DE04B461B5D0D3B4F
:102A00005A425341325DDBB20A2A0BD02B0001340B
:102A100001359F421ADD002CEFD14346325D1B7D0C
:102A20000A2AF3D1002BF1D1A04204DA4346211A3D
:102A30001B6830189847434650461B680221984748
:102A4000013428002B0001359F42E4DC874204DD7D
:102A50004346391A1B6830189847F619013E3378F7
:102A60000D3B5A42534142461375E0BCBA46B1464B
:102A7000A846F0BD0368110030009847F5E7C0464E
:102A8000A02F0010F0B5DE4657464E464546E0B54D
:102A900085B017001C0006000D00FFF78FF800231B
:102AA000304A12184B41002B58DB2F4908008A4648
:102AB00000F0DAF901906B1C03D1300000F092F9BC
:102AC0000500002C25D1294B9846294B1C68002C69
:102AD00015D0002F20D1274F02E02469002C0ED002
:102AE0002368002BF9D03B68002B01D0A342F4D11E
:102AF00020002A003100C0472469002CF0D1019B3E
:102B0000002B27D105B0F0BCBB46B246A946A04673
:102B1000F0BD194B9846D8E7164B994602ABDF1D1E
:102B20000A239B4602E02469002CE8D02368002B8E
:102B3000F9D04B461B68002B01D0A342F3D12A00E9
:102B400031002000C0475B460122390020003B7065
:102B5000C047E8E7504600F077F9D3E70122074B7A
:102B60005242A2E740420F0038020020D129001053
:102B7000FC05002000060020C1290010FFFFFF7F98
:102B8000F0B5CE46474680B583B06B460600DD1DE6
:102B90002870FFF713F800231A4A12184B41002B34
:102BA0002BDB19490800884600F05EF9174B814677
:102BB0001C68002C14D0164F02E02469002C0FD0A2
:102BC0002368002BF9D03B68002B01D0A342F4D13D
:102BD000200001222900FFF7FBFE2469002CEFD121
:102BE0004B46002B05D1300003B0C0BCB946B046FF
:102BF000F0BD404600F028F9F5E70122054B5242AE
:102C0000CFE7C04640420F0038020020FC050020FC
:102C100000060020FFFFFF7F70B5040000F0E2F81F
:102C200000230100050001222000FFF72BFF084BC5
:102C30001C68002C06D06368002B05D098472469D7
:102C4000002CF8D1280070BD2469002CF3D1F9E7DD
:102C5000FC0500200B4B10B59C4660444342584194
:102C6000094A840082B0009208482200E31CFEF763
:102C7000CBF8844202DC001B02B010BD01204042B0
:102C8000FAE7C0460000D0AFA42F0010390600209C
:102C9000F0B5D6464F4646468846C0B505240600E0
:102CA000FEF77AF843461F791C57284B8146F018E7
:102CB00043425841264B9A4683009C4653466246FF
:102CC000985801222023BA40DB1B013A002C32DB4A
:102CD0009C422DDCA2401500104229D1002F1AD0B1
:102CE00043465A7819781202114342469B78D278AB
:102CF0001B040B4312061A43904600224146530020
:102D0000C95A4B0B00D10919131912339B00013218
:102D100099519742F2D85346624605439D50484622
:102D2000FEF746F82000E0BCBA46B146A846F0BD22
:102D30000848FFF75DFC002B02DAF9E7013BF7D307
:102D400015009D401C000542F8D1C7E70000D0AF38
:102D500074050020C82F0010F0B501258D400468CF
:102D6000AC434D0004606C18E40004192600C8361A
:102D7000002B28D01F68DC3437605F6877609F685D
:102D8000DB68B76023606D18EB001D008024D03530
:102D9000451964012C4380252D06256025600125F9
:102DA0000F4C2E008C4084600C1DA64080240831FE
:102DB0008D401F21A4010443C0180A40D83026606A
:102DC00025600260F0BD80277F023760F8277F0210
:102DD0007760C027DC343F03B7602360D3E7C04689
:102DE0000101010110B583070AD00300032102E0AD
:102DF00001330B4205D01A78002AF9D1181A10BDF8
:102E0000030019680C4A0D4C8A188A4322420FD1DC
:102E10005968094A04338A188A43224208D15968FA
:102E2000054A04338A188A432242F1D000E0013374
:102E30001A78002AFBD1E1E7FFFEFEFE8080808049
:102E4000F8B5C0460000000001B40248844601BC49
:102E5000604700BF5D01002001B40248844601BC08
:102E6000604700BF8501002001B40248844601BCD0
:082E7000604700BFC100002013
:102E7800802E001009FF00002BA0032002208320D1
:102E8800C600440029A02040008000009C2E0010AD
:102E980009FF00002BA0022003208220C600440066
:102EA80029A0204000800000B82E00100BFF000071
:102EB8002BA0022082202BA0C700C8004500440098
:102EC80029A0204000800000D82E00100BFF000031
:102ED8002BA0032083202BA0C700C8004500440076
:102EE80029A0204000800000486172647761726503
:102EF80020616C61726D20256420616C726561646B
:102F08007920636C61696D65640000000A2A2A2AC9
:102F18002050414E4943202A2A2A0A000A0000006C
:102F280048617264206173736572740052656C65E0
:102F380061736500626F6F74325F77323571303854
:102F480030000000312E352E310000007069636FAB
:102F5800000000007069636F2D73796E632D6D6FCB
:102F6800746F722D646576004D6179203234203299
:102F78003032340006005250BBFF3CB6542F0010CC
:102F880006005250E182887F3C2F00100600525004
:102F9800D3F07542342F00100D0A00004E6F2050F8
:102FA800494F207374617465206D616368696E654B
:102FB800732061726520617661696C61626C65007D
:102FC8004E6F2070726F6772616D207370616365F8
:042FD80000000000F5
:102FDC00AC020010A0020010940200107C2F001014
:0C2FEC0088020010882F0010942F0010A5
:102FF800F0B5C646150000B504001E000268EFF3E0
:10300800108172B61368002BFCD0BFF35F8F0423C6
:10301800E356002B2DDB2268BFF35F8F0020106082
:1030280081F31088D0221206127852B290469A4242
:1030380003D1002080BCB846F0BD00270BE0236810
:10304800BFF35F8F1F6081F310882800310000F004
:1030580033F80028EDD12268EFF3108172B61368B7
:10306800002BFCD0BFF35F8F23797F2BE7D9434632
:1030780002E0D0231B061B6823712368BFF35F8F10
:1030880000221A6081F310880120D3E70268EFF369
:10309800108172B61368002BFCD0BFF35F8FFF233B
:1030A80003710368BFF35F8F00221A6081F31088F1
:1030B80040BF70477047C04601B40248844601BC0F
:1030C800604700BF151A0010100000000000000043
:1030D80000000100000000000000000000000200E5
:1030E80000000000000000000000030000000000D5
:1030F800000000000000FF000000000001B5486863
:1031080001318E460047704609380149884701BD9C
:10311800F9120010FC0100200000000058020020F5
:10312800BC0500200000000000000000CC050020C5
:103138000000000000000000100000000000000077
:10314800503300004C330000543300005233000069
:103158004D5300004D430000533400004334000039
:103168000000000000000000000000000000000057
:10317800A52900106D2600107D27001015290010C4
:0431880031030010FF
:04000005100001E9FD
:00000001FF
